{
  "address": "0xCf7Ed3AccA5a467e9e704C703E8D87F634fB0Fc9",
  "abi": [
    {
      "inputs": [
        {
          "internalType": "address",
          "name": "vrfCoordinatorV2",
          "type": "address"
        },
        {
          "internalType": "uint256",
          "name": "entraceFee",
          "type": "uint256"
        },
        {
          "internalType": "bytes32",
          "name": "gasLane",
          "type": "bytes32"
        },
        {
          "internalType": "uint256",
          "name": "subscriptionId",
          "type": "uint256"
        },
        {
          "internalType": "uint32",
          "name": "callBackGasLimit",
          "type": "uint32"
        },
        {
          "internalType": "uint256",
          "name": "interval",
          "type": "uint256"
        }
      ],
      "stateMutability": "nonpayable",
      "type": "constructor"
    },
    {
      "inputs": [
        {
          "internalType": "address",
          "name": "have",
          "type": "address"
        },
        {
          "internalType": "address",
          "name": "want",
          "type": "address"
        }
      ],
      "name": "OnlyCoordinatorCanFulfill",
      "type": "error"
    },
    {
      "inputs": [
        {
          "internalType": "address",
          "name": "have",
          "type": "address"
        },
        {
          "internalType": "address",
          "name": "owner",
          "type": "address"
        },
        {
          "internalType": "address",
          "name": "coordinator",
          "type": "address"
        }
      ],
      "name": "OnlyOwnerOrCoordinator",
      "type": "error"
    },
    {
      "inputs": [],
      "name": "Raffle__NotEnoughETHEntered",
      "type": "error"
    },
    {
      "inputs": [],
      "name": "Raffle__NotOpen",
      "type": "error"
    },
    {
      "inputs": [],
      "name": "Raffle__TransferFailed",
      "type": "error"
    },
    {
      "inputs": [
        {
          "internalType": "uint256",
          "name": "currentBalance",
          "type": "uint256"
        },
        {
          "internalType": "uint256",
          "name": "numPlayers",
          "type": "uint256"
        },
        {
          "internalType": "uint256",
          "name": "raffleState",
          "type": "uint256"
        }
      ],
      "name": "Raffle__UpKeepNotNeeded",
      "type": "error"
    },
    {
      "inputs": [],
      "name": "ZeroAddress",
      "type": "error"
    },
    {
      "anonymous": false,
      "inputs": [
        {
          "indexed": false,
          "internalType": "address",
          "name": "vrfCoordinator",
          "type": "address"
        }
      ],
      "name": "CoordinatorSet",
      "type": "event"
    },
    {
      "anonymous": false,
      "inputs": [
        {
          "indexed": true,
          "internalType": "address",
          "name": "from",
          "type": "address"
        },
        {
          "indexed": true,
          "internalType": "address",
          "name": "to",
          "type": "address"
        }
      ],
      "name": "OwnershipTransferRequested",
      "type": "event"
    },
    {
      "anonymous": false,
      "inputs": [
        {
          "indexed": true,
          "internalType": "address",
          "name": "from",
          "type": "address"
        },
        {
          "indexed": true,
          "internalType": "address",
          "name": "to",
          "type": "address"
        }
      ],
      "name": "OwnershipTransferred",
      "type": "event"
    },
    {
      "anonymous": false,
      "inputs": [
        {
          "indexed": true,
          "internalType": "address",
          "name": "player",
          "type": "address"
        }
      ],
      "name": "RaffleEnter",
      "type": "event"
    },
    {
      "anonymous": false,
      "inputs": [
        {
          "indexed": true,
          "internalType": "uint256",
          "name": "requestId",
          "type": "uint256"
        }
      ],
      "name": "RequestedRaffleWinner",
      "type": "event"
    },
    {
      "anonymous": false,
      "inputs": [
        {
          "indexed": true,
          "internalType": "address",
          "name": "winner",
          "type": "address"
        }
      ],
      "name": "WinnerPicked",
      "type": "event"
    },
    {
      "inputs": [],
      "name": "acceptOwnership",
      "outputs": [],
      "stateMutability": "nonpayable",
      "type": "function"
    },
    {
      "inputs": [
        {
          "internalType": "bytes",
          "name": "",
          "type": "bytes"
        }
      ],
      "name": "checkUpkeep",
      "outputs": [
        {
          "internalType": "bool",
          "name": "upkeepNeeded",
          "type": "bool"
        },
        {
          "internalType": "bytes",
          "name": "",
          "type": "bytes"
        }
      ],
      "stateMutability": "nonpayable",
      "type": "function"
    },
    {
      "inputs": [],
      "name": "enterRaffle",
      "outputs": [],
      "stateMutability": "payable",
      "type": "function"
    },
    {
      "inputs": [],
      "name": "getEntraceFee",
      "outputs": [
        {
          "internalType": "uint256",
          "name": "",
          "type": "uint256"
        }
      ],
      "stateMutability": "view",
      "type": "function"
    },
    {
      "inputs": [],
      "name": "getInterval",
      "outputs": [
        {
          "internalType": "uint256",
          "name": "",
          "type": "uint256"
        }
      ],
      "stateMutability": "view",
      "type": "function"
    },
    {
      "inputs": [],
      "name": "getLatestTimeStamp",
      "outputs": [
        {
          "internalType": "uint256",
          "name": "",
          "type": "uint256"
        }
      ],
      "stateMutability": "view",
      "type": "function"
    },
    {
      "inputs": [],
      "name": "getNumWords",
      "outputs": [
        {
          "internalType": "uint256",
          "name": "",
          "type": "uint256"
        }
      ],
      "stateMutability": "pure",
      "type": "function"
    },
    {
      "inputs": [],
      "name": "getNumberOfPlayers",
      "outputs": [
        {
          "internalType": "uint256",
          "name": "",
          "type": "uint256"
        }
      ],
      "stateMutability": "view",
      "type": "function"
    },
    {
      "inputs": [
        {
          "internalType": "uint256",
          "name": "index",
          "type": "uint256"
        }
      ],
      "name": "getPlayer",
      "outputs": [
        {
          "internalType": "address",
          "name": "",
          "type": "address"
        }
      ],
      "stateMutability": "view",
      "type": "function"
    },
    {
      "inputs": [],
      "name": "getRaffleState",
      "outputs": [
        {
          "internalType": "enum Raffle.RaffleState",
          "name": "",
          "type": "uint8"
        }
      ],
      "stateMutability": "view",
      "type": "function"
    },
    {
      "inputs": [],
      "name": "getRecentWinner",
      "outputs": [
        {
          "internalType": "address",
          "name": "",
          "type": "address"
        }
      ],
      "stateMutability": "view",
      "type": "function"
    },
    {
      "inputs": [],
      "name": "getRequestConfirmations",
      "outputs": [
        {
          "internalType": "uint256",
          "name": "",
          "type": "uint256"
        }
      ],
      "stateMutability": "pure",
      "type": "function"
    },
    {
      "inputs": [],
      "name": "owner",
      "outputs": [
        {
          "internalType": "address",
          "name": "",
          "type": "address"
        }
      ],
      "stateMutability": "view",
      "type": "function"
    },
    {
      "inputs": [
        {
          "internalType": "bytes",
          "name": "",
          "type": "bytes"
        }
      ],
      "name": "performUpkeep",
      "outputs": [],
      "stateMutability": "nonpayable",
      "type": "function"
    },
    {
      "inputs": [
        {
          "internalType": "uint256",
          "name": "requestId",
          "type": "uint256"
        },
        {
          "internalType": "uint256[]",
          "name": "randomWords",
          "type": "uint256[]"
        }
      ],
      "name": "rawFulfillRandomWords",
      "outputs": [],
      "stateMutability": "nonpayable",
      "type": "function"
    },
    {
      "inputs": [],
      "name": "s_vrfCoordinator",
      "outputs": [
        {
          "internalType": "contract IVRFCoordinatorV2Plus",
          "name": "",
          "type": "address"
        }
      ],
      "stateMutability": "view",
      "type": "function"
    },
    {
      "inputs": [
        {
          "internalType": "address",
          "name": "_vrfCoordinator",
          "type": "address"
        }
      ],
      "name": "setCoordinator",
      "outputs": [],
      "stateMutability": "nonpayable",
      "type": "function"
    },
    {
      "inputs": [
        {
          "internalType": "address",
          "name": "to",
          "type": "address"
        }
      ],
      "name": "transferOwnership",
      "outputs": [],
      "stateMutability": "nonpayable",
      "type": "function"
    }
  ],
  "transactionHash": "0x65f7f861dd84085aaa76eef19244ffeb6dbc14629eeba49c5d5a155351124c39",
  "args": [
    "0x5FbDB2315678afecb367f032d93F642f64180aa3",
    "10000000000000000",
    "0x787d74caea10b2b357790d5b5247c2f63d1d91572a9846f780606e4d953677ae",
    "0x45d081c5a2efce6779399401d2525b85120ce6848047f812ec6d2f93ce16f296",
    "500000",
    "30"
  ],
  "numDeployments": 1,
  "solcInputHash": "d455f0f31e520f2b965dff07dbc79999",
  "bytecode": "0x6101406040523480156200001257600080fd5b506040516200258f3803806200258f8339818101604052810190620000389190620004dc565b85338060008073ffffffffffffffffffffffffffffffffffffffff168273ffffffffffffffffffffffffffffffffffffffff1603620000ae576040517f08c379a0000000000000000000000000000000000000000000000000000000008152600401620000a590620005d9565b60405180910390fd5b816000806101000a81548173ffffffffffffffffffffffffffffffffffffffff021916908373ffffffffffffffffffffffffffffffffffffffff160217905550600073ffffffffffffffffffffffffffffffffffffffff168173ffffffffffffffffffffffffffffffffffffffff1614620001355762000134816200028c60201b60201c565b5b505050600073ffffffffffffffffffffffffffffffffffffffff168173ffffffffffffffffffffffffffffffffffffffff16036200019f576040517fd92e233d00000000000000000000000000000000000000000000000000000000815260040160405180910390fd5b80600260006101000a81548173ffffffffffffffffffffffffffffffffffffffff021916908373ffffffffffffffffffffffffffffffffffffffff160217905550508460a081815250508573ffffffffffffffffffffffffffffffffffffffff1660808173ffffffffffffffffffffffffffffffffffffffff16815250508360c081815250508260e081815250508163ffffffff166101008163ffffffff16815250506000600460146101000a81548160ff021916908360018111156200026b576200026a620005fb565b5b0217905550426005819055508061012081815250505050505050506200069c565b3373ffffffffffffffffffffffffffffffffffffffff168173ffffffffffffffffffffffffffffffffffffffff1603620002fd576040517f08c379a0000000000000000000000000000000000000000000000000000000008152600401620002f4906200067a565b60405180910390fd5b80600160006101000a81548173ffffffffffffffffffffffffffffffffffffffff021916908373ffffffffffffffffffffffffffffffffffffffff1602179055508073ffffffffffffffffffffffffffffffffffffffff1660008054906101000a900473ffffffffffffffffffffffffffffffffffffffff1673ffffffffffffffffffffffffffffffffffffffff167fed8889f560326eb138920d842192f0eb3dd22b4f139c87a2c57538e05bae127860405160405180910390a350565b600080fd5b600073ffffffffffffffffffffffffffffffffffffffff82169050919050565b6000620003ed82620003c0565b9050919050565b620003ff81620003e0565b81146200040b57600080fd5b50565b6000815190506200041f81620003f4565b92915050565b6000819050919050565b6200043a8162000425565b81146200044657600080fd5b50565b6000815190506200045a816200042f565b92915050565b6000819050919050565b620004758162000460565b81146200048157600080fd5b50565b60008151905062000495816200046a565b92915050565b600063ffffffff82169050919050565b620004b6816200049b565b8114620004c257600080fd5b50565b600081519050620004d681620004ab565b92915050565b60008060008060008060c08789031215620004fc57620004fb620003bb565b5b60006200050c89828a016200040e565b96505060206200051f89828a0162000449565b95505060406200053289828a0162000484565b94505060606200054589828a0162000449565b93505060806200055889828a01620004c5565b92505060a06200056b89828a0162000449565b9150509295509295509295565b600082825260208201905092915050565b7f43616e6e6f7420736574206f776e657220746f207a65726f0000000000000000600082015250565b6000620005c160188362000578565b9150620005ce8262000589565b602082019050919050565b60006020820190508181036000830152620005f481620005b2565b9050919050565b7f4e487b7100000000000000000000000000000000000000000000000000000000600052602160045260246000fd5b7f43616e6e6f74207472616e7366657220746f2073656c66000000000000000000600082015250565b60006200066260178362000578565b91506200066f826200062a565b602082019050919050565b60006020820190508181036000830152620006958162000653565b9050919050565b60805160a05160c05160e0516101005161012051611e98620006f76000396000818161091b0152610d3d015260006107aa01526000610779015260006107530152600081816104db0152610d8b015260005050611e986000f3fe6080604052600436106101095760003560e01c806379ba5097116100955780639eccacf6116100645780639eccacf614610315578063ce147cf314610340578063e55ae4e81461036b578063f2fde38b146103a8578063fd6673f5146103d157610109565b806379ba50971461027f5780638da5cb5b146102965780638ea98117146102c157806391ad27b4146102ea57610109565b80634585e33b116100dc5780634585e33b14610197578063473f1ddc146101c057806353a2c19a146101eb5780635f1b0fd8146102165780636e04ff0d1461024157610109565b8063115cbaf51461010e5780631fe543e3146101395780632cfcc53914610162578063320229eb1461016c575b600080fd5b34801561011a57600080fd5b506101236103fc565b60405161013091906113b6565b60405180910390f35b34801561014557600080fd5b50610160600480360381019061015b9190611480565b610413565b005b61016a6104d9565b005b34801561017857600080fd5b50610181610648565b60405161018e91906114ef565b60405180910390f35b3480156101a357600080fd5b506101be60048036038101906101b99190611560565b610652565b005b3480156101cc57600080fd5b506101d5610892565b6040516101e291906115ee565b60405180910390f35b3480156101f757600080fd5b506102006108bc565b60405161020d91906114ef565b60405180910390f35b34801561022257600080fd5b5061022b6108cb565b60405161023891906114ef565b60405180910390f35b34801561024d57600080fd5b506102686004803603810190610263919061174a565b6108d8565b60405161027692919061182d565b60405180910390f35b34801561028b57600080fd5b5061029461099a565b005b3480156102a257600080fd5b506102ab610b2f565b6040516102b891906115ee565b60405180910390f35b3480156102cd57600080fd5b506102e860048036038101906102e39190611889565b610b58565b005b3480156102f657600080fd5b506102ff610d39565b60405161030c91906114ef565b60405180910390f35b34801561032157600080fd5b5061032a610d61565b6040516103379190611915565b60405180910390f35b34801561034c57600080fd5b50610355610d87565b60405161036291906114ef565b60405180910390f35b34801561037757600080fd5b50610392600480360381019061038d9190611930565b610daf565b60405161039f91906115ee565b60405180910390f35b3480156103b457600080fd5b506103cf60048036038101906103ca9190611889565b610df7565b005b3480156103dd57600080fd5b506103e6610e0b565b6040516103f391906114ef565b60405180910390f35b6000600460149054906101000a900460ff16905090565b600260009054906101000a900473ffffffffffffffffffffffffffffffffffffffff1673ffffffffffffffffffffffffffffffffffffffff163373ffffffffffffffffffffffffffffffffffffffff16146104c95733600260009054906101000a900473ffffffffffffffffffffffffffffffffffffffff166040517f1cf993f40000000000000000000000000000000000000000000000000000000081526004016104c092919061195d565b60405180910390fd5b6104d4838383610e18565b505050565b7f0000000000000000000000000000000000000000000000000000000000000000341015610533576040517fbd4e069500000000000000000000000000000000000000000000000000000000815260040160405180910390fd5b600060018111156105475761054661133f565b5b600460149054906101000a900460ff1660018111156105695761056861133f565b5b146105a0576040517f1425571c00000000000000000000000000000000000000000000000000000000815260040160405180910390fd5b6003339080600181540180825580915050600190039060005260206000200160009091909190916101000a81548173ffffffffffffffffffffffffffffffffffffffff021916908373ffffffffffffffffffffffffffffffffffffffff1602179055503373ffffffffffffffffffffffffffffffffffffffff167f0805e1d667bddb8a95f0f09880cf94f403fb596ce79928d9f29b74203ba284d460405160405180910390a2565b6000600554905090565b600061066c604051806020016040528060008152506108d8565b509050806106db5747600380549050600460149054906101000a900460ff16600181111561069d5761069c61133f565b5b6040517f3a8d60860000000000000000000000000000000000000000000000000000000081526004016106d293929190611986565b60405180910390fd5b6001600460146101000a81548160ff021916908360018111156107015761070061133f565b5b02179055506000600260009054906101000a900473ffffffffffffffffffffffffffffffffffffffff1673ffffffffffffffffffffffffffffffffffffffff16639b1c385e6040518060c001604052807f000000000000000000000000000000000000000000000000000000000000000081526020017f00000000000000000000000000000000000000000000000000000000000000008152602001600361ffff1681526020017f000000000000000000000000000000000000000000000000000000000000000063ffffffff168152602001600163ffffffff1681526020016107fb604051806020016040528060001515815250611044565b8152506040518263ffffffff1660e01b815260040161081a9190611af4565b6020604051808303816000875af1158015610839573d6000803e3d6000fd5b505050506040513d601f19601f8201168201806040525081019061085d9190611b2b565b9050807fcd6e45c8998311cab7e9d4385596cac867e20a0587194b954fa3a731c93ce78b60405160405180910390a250505050565b6000600460009054906101000a900473ffffffffffffffffffffffffffffffffffffffff16905090565b6000600163ffffffff16905090565b6000600361ffff16905090565b600060606000600460149054906101000a900460ff166001811115610900576108ff61133f565b5b600060018111156109145761091361133f565b5b14905060007f0000000000000000000000000000000000000000000000000000000000000000600554426109489190611b87565b119050600080600380549050119050600080471190508380156109685750825b80156109715750815b801561097a5750805b955085604051806020016040528060008152509550955050505050915091565b600160009054906101000a900473ffffffffffffffffffffffffffffffffffffffff1673ffffffffffffffffffffffffffffffffffffffff163373ffffffffffffffffffffffffffffffffffffffff1614610a2a576040517f08c379a0000000000000000000000000000000000000000000000000000000008152600401610a2190611c18565b60405180910390fd5b60008060009054906101000a900473ffffffffffffffffffffffffffffffffffffffff169050336000806101000a81548173ffffffffffffffffffffffffffffffffffffffff021916908373ffffffffffffffffffffffffffffffffffffffff1602179055506000600160006101000a81548173ffffffffffffffffffffffffffffffffffffffff021916908373ffffffffffffffffffffffffffffffffffffffff1602179055503373ffffffffffffffffffffffffffffffffffffffff168173ffffffffffffffffffffffffffffffffffffffff167f8be0079c531659141344cd1fd0a4f28419497f9722a3daafe3b4186f6b6457e060405160405180910390a350565b60008060009054906101000a900473ffffffffffffffffffffffffffffffffffffffff16905090565b610b60610b2f565b73ffffffffffffffffffffffffffffffffffffffff163373ffffffffffffffffffffffffffffffffffffffff1614158015610be95750600260009054906101000a900473ffffffffffffffffffffffffffffffffffffffff1673ffffffffffffffffffffffffffffffffffffffff163373ffffffffffffffffffffffffffffffffffffffff1614155b15610c585733610bf7610b2f565b600260009054906101000a900473ffffffffffffffffffffffffffffffffffffffff166040517f061db9c1000000000000000000000000000000000000000000000000000000008152600401610c4f93929190611c38565b60405180910390fd5b600073ffffffffffffffffffffffffffffffffffffffff168173ffffffffffffffffffffffffffffffffffffffff1603610cbe576040517fd92e233d00000000000000000000000000000000000000000000000000000000815260040160405180910390fd5b80600260006101000a81548173ffffffffffffffffffffffffffffffffffffffff021916908373ffffffffffffffffffffffffffffffffffffffff1602179055507fd1a6a14209a385a964d036e404cb5cfb71f4000cdb03c9366292430787261be681604051610d2e91906115ee565b60405180910390a150565b60007f0000000000000000000000000000000000000000000000000000000000000000905090565b600260009054906101000a900473ffffffffffffffffffffffffffffffffffffffff1681565b60007f0000000000000000000000000000000000000000000000000000000000000000905090565b600060038281548110610dc557610dc4611c6f565b5b9060005260206000200160009054906101000a900473ffffffffffffffffffffffffffffffffffffffff169050919050565b610dff6110dc565b610e088161116c565b50565b6000600380549050905090565b60006003808054905084846000818110610e3557610e34611c6f565b5b90506020020135610e469190611ccd565b81548110610e5757610e56611c6f565b5b9060005260206000200160009054906101000a900473ffffffffffffffffffffffffffffffffffffffff16905080600460006101000a81548173ffffffffffffffffffffffffffffffffffffffff021916908373ffffffffffffffffffffffffffffffffffffffff1602179055506000600460146101000a81548160ff02191690836001811115610eeb57610eea61133f565b5b0217905550600067ffffffffffffffff811115610f0b57610f0a61161f565b5b604051908082528060200260200182016040528015610f395781602001602082028036833780820191505090505b5060039080519060200190610f4f929190611298565b504260058190555060008173ffffffffffffffffffffffffffffffffffffffff1647604051610f7d90611d2f565b60006040518083038185875af1925050503d8060008114610fba576040519150601f19603f3d011682016040523d82523d6000602084013e610fbf565b606091505b5050905080610ffa576040517fa1d04b3900000000000000000000000000000000000000000000000000000000815260040160405180910390fd5b8173ffffffffffffffffffffffffffffffffffffffff167f5b690ec4a06fe979403046eaeea5b3ce38524683c3001f662c8b5a829632f7df60405160405180910390a25050505050565b60607f92fd13387c7fe7befbc38d303d6468778fb9731bc4583f17d92989c6fcfdeaaa826040516024016110789190611d6f565b604051602081830303815290604052907bffffffffffffffffffffffffffffffffffffffffffffffffffffffff19166020820180517bffffffffffffffffffffffffffffffffffffffffffffffffffffffff83818316178352505050509050919050565b60008054906101000a900473ffffffffffffffffffffffffffffffffffffffff1673ffffffffffffffffffffffffffffffffffffffff163373ffffffffffffffffffffffffffffffffffffffff161461116a576040517f08c379a000000000000000000000000000000000000000000000000000000000815260040161116190611dd6565b60405180910390fd5b565b3373ffffffffffffffffffffffffffffffffffffffff168173ffffffffffffffffffffffffffffffffffffffff16036111da576040517f08c379a00000000000000000000000000000000000000000000000000000000081526004016111d190611e42565b60405180910390fd5b80600160006101000a81548173ffffffffffffffffffffffffffffffffffffffff021916908373ffffffffffffffffffffffffffffffffffffffff1602179055508073ffffffffffffffffffffffffffffffffffffffff1660008054906101000a900473ffffffffffffffffffffffffffffffffffffffff1673ffffffffffffffffffffffffffffffffffffffff167fed8889f560326eb138920d842192f0eb3dd22b4f139c87a2c57538e05bae127860405160405180910390a350565b828054828255906000526020600020908101928215611311579160200282015b828111156113105782518260006101000a81548173ffffffffffffffffffffffffffffffffffffffff021916908373ffffffffffffffffffffffffffffffffffffffff160217905550916020019190600101906112b8565b5b50905061131e9190611322565b5090565b5b8082111561133b576000816000905550600101611323565b5090565b7f4e487b7100000000000000000000000000000000000000000000000000000000600052602160045260246000fd5b6002811061137f5761137e61133f565b5b50565b60008190506113908261136e565b919050565b60006113a082611382565b9050919050565b6113b081611395565b82525050565b60006020820190506113cb60008301846113a7565b92915050565b6000604051905090565b600080fd5b600080fd5b6000819050919050565b6113f8816113e5565b811461140357600080fd5b50565b600081359050611415816113ef565b92915050565b600080fd5b600080fd5b600080fd5b60008083601f8401126114405761143f61141b565b5b8235905067ffffffffffffffff81111561145d5761145c611420565b5b60208301915083602082028301111561147957611478611425565b5b9250929050565b600080600060408486031215611499576114986113db565b5b60006114a786828701611406565b935050602084013567ffffffffffffffff8111156114c8576114c76113e0565b5b6114d48682870161142a565b92509250509250925092565b6114e9816113e5565b82525050565b600060208201905061150460008301846114e0565b92915050565b60008083601f8401126115205761151f61141b565b5b8235905067ffffffffffffffff81111561153d5761153c611420565b5b60208301915083600182028301111561155957611558611425565b5b9250929050565b60008060208385031215611577576115766113db565b5b600083013567ffffffffffffffff811115611595576115946113e0565b5b6115a18582860161150a565b92509250509250929050565b600073ffffffffffffffffffffffffffffffffffffffff82169050919050565b60006115d8826115ad565b9050919050565b6115e8816115cd565b82525050565b600060208201905061160360008301846115df565b92915050565b600080fd5b6000601f19601f8301169050919050565b7f4e487b7100000000000000000000000000000000000000000000000000000000600052604160045260246000fd5b6116578261160e565b810181811067ffffffffffffffff821117156116765761167561161f565b5b80604052505050565b60006116896113d1565b9050611695828261164e565b919050565b600067ffffffffffffffff8211156116b5576116b461161f565b5b6116be8261160e565b9050602081019050919050565b82818337600083830152505050565b60006116ed6116e88461169a565b61167f565b90508281526020810184848401111561170957611708611609565b5b6117148482856116cb565b509392505050565b600082601f8301126117315761173061141b565b5b81356117418482602086016116da565b91505092915050565b6000602082840312156117605761175f6113db565b5b600082013567ffffffffffffffff81111561177e5761177d6113e0565b5b61178a8482850161171c565b91505092915050565b60008115159050919050565b6117a881611793565b82525050565b600081519050919050565b600082825260208201905092915050565b60005b838110156117e85780820151818401526020810190506117cd565b60008484015250505050565b60006117ff826117ae565b61180981856117b9565b93506118198185602086016117ca565b6118228161160e565b840191505092915050565b6000604082019050611842600083018561179f565b818103602083015261185481846117f4565b90509392505050565b611866816115cd565b811461187157600080fd5b50565b6000813590506118838161185d565b92915050565b60006020828403121561189f5761189e6113db565b5b60006118ad84828501611874565b91505092915050565b6000819050919050565b60006118db6118d66118d1846115ad565b6118b6565b6115ad565b9050919050565b60006118ed826118c0565b9050919050565b60006118ff826118e2565b9050919050565b61190f816118f4565b82525050565b600060208201905061192a6000830184611906565b92915050565b600060208284031215611946576119456113db565b5b600061195484828501611406565b91505092915050565b600060408201905061197260008301856115df565b61197f60208301846115df565b9392505050565b600060608201905061199b60008301866114e0565b6119a860208301856114e0565b6119b560408301846114e0565b949350505050565b6000819050919050565b6119d0816119bd565b82525050565b6119df816113e5565b82525050565b600061ffff82169050919050565b6119fc816119e5565b82525050565b600063ffffffff82169050919050565b611a1b81611a02565b82525050565b600082825260208201905092915050565b6000611a3d826117ae565b611a478185611a21565b9350611a578185602086016117ca565b611a608161160e565b840191505092915050565b600060c083016000830151611a8360008601826119c7565b506020830151611a9660208601826119d6565b506040830151611aa960408601826119f3565b506060830151611abc6060860182611a12565b506080830151611acf6080860182611a12565b5060a083015184820360a0860152611ae78282611a32565b9150508091505092915050565b60006020820190508181036000830152611b0e8184611a6b565b905092915050565b600081519050611b25816113ef565b92915050565b600060208284031215611b4157611b406113db565b5b6000611b4f84828501611b16565b91505092915050565b7f4e487b7100000000000000000000000000000000000000000000000000000000600052601160045260246000fd5b6000611b92826113e5565b9150611b9d836113e5565b9250828203905081811115611bb557611bb4611b58565b5b92915050565b600082825260208201905092915050565b7f4d7573742062652070726f706f736564206f776e657200000000000000000000600082015250565b6000611c02601683611bbb565b9150611c0d82611bcc565b602082019050919050565b60006020820190508181036000830152611c3181611bf5565b9050919050565b6000606082019050611c4d60008301866115df565b611c5a60208301856115df565b611c6760408301846115df565b949350505050565b7f4e487b7100000000000000000000000000000000000000000000000000000000600052603260045260246000fd5b7f4e487b7100000000000000000000000000000000000000000000000000000000600052601260045260246000fd5b6000611cd8826113e5565b9150611ce3836113e5565b925082611cf357611cf2611c9e565b5b828206905092915050565b600081905092915050565b50565b6000611d19600083611cfe565b9150611d2482611d09565b600082019050919050565b6000611d3a82611d0c565b9150819050919050565b611d4d81611793565b82525050565b602082016000820151611d696000850182611d44565b50505050565b6000602082019050611d846000830184611d53565b92915050565b7f4f6e6c792063616c6c61626c65206279206f776e657200000000000000000000600082015250565b6000611dc0601683611bbb565b9150611dcb82611d8a565b602082019050919050565b60006020820190508181036000830152611def81611db3565b9050919050565b7f43616e6e6f74207472616e7366657220746f2073656c66000000000000000000600082015250565b6000611e2c601783611bbb565b9150611e3782611df6565b602082019050919050565b60006020820190508181036000830152611e5b81611e1f565b905091905056fea2646970667358221220b01b57db8370b2b1cee6ea50e465099f91002bd32fdc99bf4bbd8f1b061b8a0564736f6c63430008180033",
  "devdoc": {
    "author": "Kartik",
    "details": "This implements Chainlink VRFv2.5 and ChainkLink Keepers",
    "kind": "dev",
    "methods": {
      "checkUpkeep(bytes)": {
        "details": "This is function that the Chainlink Keeper nodes call they look for the `upKeepNeeded` to return true The following should be true in order to return  true: 1. Our time interval should have passed 2. The lottery should have at least 1 player, and have some ETH 3. Our subscription is funded with LINK 4. The lottery should be in an \"open\" state"
      }
    },
    "title": "A sample Raffle Contract",
    "version": 1
  },
  "userdoc": {
    "kind": "user",
    "methods": {
      "acceptOwnership()": {
        "notice": "Allows an ownership transfer to be completed by the recipient."
      },
      "owner()": {
        "notice": "Get the current owner"
      },
      "setCoordinator(address)": {
        "notice": "Sets the VRF Coordinator addressThis method should only be callable by the coordinator or contract owner"
      },
      "transferOwnership(address)": {
        "notice": "Allows an owner to begin transferring ownership to a new address."
      }
    },
    "notice": "This contract is for creating untamperable smart contract",
    "version": 1
  },
  "storageLayout": {
    "storage": [
      {
        "astId": 97,
        "contract": "contracts/Raffle.sol:Raffle",
        "label": "s_owner",
        "offset": 0,
        "slot": "0",
        "type": "t_address"
      },
      {
        "astId": 99,
        "contract": "contracts/Raffle.sol:Raffle",
        "label": "s_pendingOwner",
        "offset": 0,
        "slot": "1",
        "type": "t_address"
      },
      {
        "astId": 299,
        "contract": "contracts/Raffle.sol:Raffle",
        "label": "s_vrfCoordinator",
        "offset": 0,
        "slot": "2",
        "type": "t_contract(IVRFCoordinatorV2Plus)448"
      },
      {
        "astId": 729,
        "contract": "contracts/Raffle.sol:Raffle",
        "label": "s_players",
        "offset": 0,
        "slot": "3",
        "type": "t_array(t_address_payable)dyn_storage"
      },
      {
        "astId": 743,
        "contract": "contracts/Raffle.sol:Raffle",
        "label": "s_recentWinner",
        "offset": 0,
        "slot": "4",
        "type": "t_address"
      },
      {
        "astId": 746,
        "contract": "contracts/Raffle.sol:Raffle",
        "label": "s_raffleState",
        "offset": 20,
        "slot": "4",
        "type": "t_enum(RaffleState)721"
      },
      {
        "astId": 748,
        "contract": "contracts/Raffle.sol:Raffle",
        "label": "s_lastTimeStamp",
        "offset": 0,
        "slot": "5",
        "type": "t_uint256"
      }
    ],
    "types": {
      "t_address": {
        "encoding": "inplace",
        "label": "address",
        "numberOfBytes": "20"
      },
      "t_address_payable": {
        "encoding": "inplace",
        "label": "address payable",
        "numberOfBytes": "20"
      },
      "t_array(t_address_payable)dyn_storage": {
        "base": "t_address_payable",
        "encoding": "dynamic_array",
        "label": "address payable[]",
        "numberOfBytes": "32"
      },
      "t_contract(IVRFCoordinatorV2Plus)448": {
        "encoding": "inplace",
        "label": "contract IVRFCoordinatorV2Plus",
        "numberOfBytes": "20"
      },
      "t_enum(RaffleState)721": {
        "encoding": "inplace",
        "label": "enum Raffle.RaffleState",
        "numberOfBytes": "1"
      },
      "t_uint256": {
        "encoding": "inplace",
        "label": "uint256",
        "numberOfBytes": "32"
      }
    }
  }
}