{
  "address": "0x227E3f8b83B76E439f802e20CFC94AB17CF81DcD",
  "abi": [
    {
      "inputs": [
        {
          "internalType": "address",
          "name": "vrfCoordinatorV2",
          "type": "address"
        },
        {
          "internalType": "uint256",
          "name": "entraceFee",
          "type": "uint256"
        },
        {
          "internalType": "bytes32",
          "name": "gasLane",
          "type": "bytes32"
        },
        {
          "internalType": "uint256",
          "name": "subscriptionId",
          "type": "uint256"
        },
        {
          "internalType": "uint32",
          "name": "callBackGasLimit",
          "type": "uint32"
        },
        {
          "internalType": "uint256",
          "name": "interval",
          "type": "uint256"
        }
      ],
      "stateMutability": "nonpayable",
      "type": "constructor"
    },
    {
      "inputs": [
        {
          "internalType": "address",
          "name": "have",
          "type": "address"
        },
        {
          "internalType": "address",
          "name": "want",
          "type": "address"
        }
      ],
      "name": "OnlyCoordinatorCanFulfill",
      "type": "error"
    },
    {
      "inputs": [
        {
          "internalType": "address",
          "name": "have",
          "type": "address"
        },
        {
          "internalType": "address",
          "name": "owner",
          "type": "address"
        },
        {
          "internalType": "address",
          "name": "coordinator",
          "type": "address"
        }
      ],
      "name": "OnlyOwnerOrCoordinator",
      "type": "error"
    },
    {
      "inputs": [],
      "name": "Raffle__NotEnoughETHEntered",
      "type": "error"
    },
    {
      "inputs": [],
      "name": "Raffle__NotOpen",
      "type": "error"
    },
    {
      "inputs": [],
      "name": "Raffle__TransferFailed",
      "type": "error"
    },
    {
      "inputs": [
        {
          "internalType": "uint256",
          "name": "currentBalance",
          "type": "uint256"
        },
        {
          "internalType": "uint256",
          "name": "numPlayers",
          "type": "uint256"
        },
        {
          "internalType": "uint256",
          "name": "raffleState",
          "type": "uint256"
        }
      ],
      "name": "Raffle__UpKeepNotNeeded",
      "type": "error"
    },
    {
      "inputs": [],
      "name": "ZeroAddress",
      "type": "error"
    },
    {
      "anonymous": false,
      "inputs": [
        {
          "indexed": false,
          "internalType": "address",
          "name": "vrfCoordinator",
          "type": "address"
        }
      ],
      "name": "CoordinatorSet",
      "type": "event"
    },
    {
      "anonymous": false,
      "inputs": [
        {
          "indexed": true,
          "internalType": "address",
          "name": "from",
          "type": "address"
        },
        {
          "indexed": true,
          "internalType": "address",
          "name": "to",
          "type": "address"
        }
      ],
      "name": "OwnershipTransferRequested",
      "type": "event"
    },
    {
      "anonymous": false,
      "inputs": [
        {
          "indexed": true,
          "internalType": "address",
          "name": "from",
          "type": "address"
        },
        {
          "indexed": true,
          "internalType": "address",
          "name": "to",
          "type": "address"
        }
      ],
      "name": "OwnershipTransferred",
      "type": "event"
    },
    {
      "anonymous": false,
      "inputs": [
        {
          "indexed": true,
          "internalType": "address",
          "name": "player",
          "type": "address"
        }
      ],
      "name": "RaffleEnter",
      "type": "event"
    },
    {
      "anonymous": false,
      "inputs": [
        {
          "indexed": true,
          "internalType": "uint256",
          "name": "requestId",
          "type": "uint256"
        }
      ],
      "name": "RequestedRaffleWinner",
      "type": "event"
    },
    {
      "anonymous": false,
      "inputs": [
        {
          "indexed": true,
          "internalType": "address",
          "name": "winner",
          "type": "address"
        }
      ],
      "name": "WinnerPicked",
      "type": "event"
    },
    {
      "inputs": [],
      "name": "acceptOwnership",
      "outputs": [],
      "stateMutability": "nonpayable",
      "type": "function"
    },
    {
      "inputs": [
        {
          "internalType": "bytes",
          "name": "",
          "type": "bytes"
        }
      ],
      "name": "checkUpkeep",
      "outputs": [
        {
          "internalType": "bool",
          "name": "upkeepNeeded",
          "type": "bool"
        },
        {
          "internalType": "bytes",
          "name": "",
          "type": "bytes"
        }
      ],
      "stateMutability": "nonpayable",
      "type": "function"
    },
    {
      "inputs": [],
      "name": "enterRaffle",
      "outputs": [],
      "stateMutability": "payable",
      "type": "function"
    },
    {
      "inputs": [],
      "name": "getEntraceFee",
      "outputs": [
        {
          "internalType": "uint256",
          "name": "",
          "type": "uint256"
        }
      ],
      "stateMutability": "view",
      "type": "function"
    },
    {
      "inputs": [],
      "name": "getLatestTimeStamp",
      "outputs": [
        {
          "internalType": "uint256",
          "name": "",
          "type": "uint256"
        }
      ],
      "stateMutability": "view",
      "type": "function"
    },
    {
      "inputs": [],
      "name": "getNumWords",
      "outputs": [
        {
          "internalType": "uint256",
          "name": "",
          "type": "uint256"
        }
      ],
      "stateMutability": "pure",
      "type": "function"
    },
    {
      "inputs": [],
      "name": "getNumberOfPlayers",
      "outputs": [
        {
          "internalType": "uint256",
          "name": "",
          "type": "uint256"
        }
      ],
      "stateMutability": "view",
      "type": "function"
    },
    {
      "inputs": [
        {
          "internalType": "uint256",
          "name": "index",
          "type": "uint256"
        }
      ],
      "name": "getPlayer",
      "outputs": [
        {
          "internalType": "address",
          "name": "",
          "type": "address"
        }
      ],
      "stateMutability": "view",
      "type": "function"
    },
    {
      "inputs": [],
      "name": "getRaffleState",
      "outputs": [
        {
          "internalType": "enum Raffle.RaffleState",
          "name": "",
          "type": "uint8"
        }
      ],
      "stateMutability": "view",
      "type": "function"
    },
    {
      "inputs": [],
      "name": "getRecentWinner",
      "outputs": [
        {
          "internalType": "address",
          "name": "",
          "type": "address"
        }
      ],
      "stateMutability": "view",
      "type": "function"
    },
    {
      "inputs": [],
      "name": "getRequestConfirmations",
      "outputs": [
        {
          "internalType": "uint256",
          "name": "",
          "type": "uint256"
        }
      ],
      "stateMutability": "pure",
      "type": "function"
    },
    {
      "inputs": [],
      "name": "owner",
      "outputs": [
        {
          "internalType": "address",
          "name": "",
          "type": "address"
        }
      ],
      "stateMutability": "view",
      "type": "function"
    },
    {
      "inputs": [
        {
          "internalType": "bytes",
          "name": "",
          "type": "bytes"
        }
      ],
      "name": "performUpkeep",
      "outputs": [],
      "stateMutability": "nonpayable",
      "type": "function"
    },
    {
      "inputs": [
        {
          "internalType": "uint256",
          "name": "requestId",
          "type": "uint256"
        },
        {
          "internalType": "uint256[]",
          "name": "randomWords",
          "type": "uint256[]"
        }
      ],
      "name": "rawFulfillRandomWords",
      "outputs": [],
      "stateMutability": "nonpayable",
      "type": "function"
    },
    {
      "inputs": [],
      "name": "s_vrfCoordinator",
      "outputs": [
        {
          "internalType": "contract IVRFCoordinatorV2Plus",
          "name": "",
          "type": "address"
        }
      ],
      "stateMutability": "view",
      "type": "function"
    },
    {
      "inputs": [
        {
          "internalType": "address",
          "name": "_vrfCoordinator",
          "type": "address"
        }
      ],
      "name": "setCoordinator",
      "outputs": [],
      "stateMutability": "nonpayable",
      "type": "function"
    },
    {
      "inputs": [
        {
          "internalType": "address",
          "name": "to",
          "type": "address"
        }
      ],
      "name": "transferOwnership",
      "outputs": [],
      "stateMutability": "nonpayable",
      "type": "function"
    }
  ],
  "transactionHash": "0xd2792d71db1aba46dd2b4bf5ce71d9663fb4100260d1e66d952374875e5858d2",
  "args": [
    "0x9ddfaca8183c41ad55329bdeed9f6a8d53168b1b",
    "10000000000000000",
    "0x787d74caea10b2b357790d5b5247c2f63d1d91572a9846f780606e4d953677ae",
    "115607676258667048913848664587031471620005328582712803001083010884553584211002",
    "500000",
    "30"
  ],
  "numDeployments": 2,
  "solcInputHash": "a07705aeba49379a996c070030a0f9f8",
  "bytecode": "0x6101406040523480156200001257600080fd5b506040516200252a3803806200252a8339818101604052810190620000389190620004dc565b85338060008073ffffffffffffffffffffffffffffffffffffffff168273ffffffffffffffffffffffffffffffffffffffff1603620000ae576040517f08c379a0000000000000000000000000000000000000000000000000000000008152600401620000a590620005d9565b60405180910390fd5b816000806101000a81548173ffffffffffffffffffffffffffffffffffffffff021916908373ffffffffffffffffffffffffffffffffffffffff160217905550600073ffffffffffffffffffffffffffffffffffffffff168173ffffffffffffffffffffffffffffffffffffffff1614620001355762000134816200028c60201b60201c565b5b505050600073ffffffffffffffffffffffffffffffffffffffff168173ffffffffffffffffffffffffffffffffffffffff16036200019f576040517fd92e233d00000000000000000000000000000000000000000000000000000000815260040160405180910390fd5b80600260006101000a81548173ffffffffffffffffffffffffffffffffffffffff021916908373ffffffffffffffffffffffffffffffffffffffff160217905550508460a081815250508573ffffffffffffffffffffffffffffffffffffffff1660808173ffffffffffffffffffffffffffffffffffffffff16815250508360c081815250508260e081815250508163ffffffff166101008163ffffffff16815250506000600460146101000a81548160ff021916908360018111156200026b576200026a620005fb565b5b0217905550426005819055508061012081815250505050505050506200069c565b3373ffffffffffffffffffffffffffffffffffffffff168173ffffffffffffffffffffffffffffffffffffffff1603620002fd576040517f08c379a0000000000000000000000000000000000000000000000000000000008152600401620002f4906200067a565b60405180910390fd5b80600160006101000a81548173ffffffffffffffffffffffffffffffffffffffff021916908373ffffffffffffffffffffffffffffffffffffffff1602179055508073ffffffffffffffffffffffffffffffffffffffff1660008054906101000a900473ffffffffffffffffffffffffffffffffffffffff1673ffffffffffffffffffffffffffffffffffffffff167fed8889f560326eb138920d842192f0eb3dd22b4f139c87a2c57538e05bae127860405160405180910390a350565b600080fd5b600073ffffffffffffffffffffffffffffffffffffffff82169050919050565b6000620003ed82620003c0565b9050919050565b620003ff81620003e0565b81146200040b57600080fd5b50565b6000815190506200041f81620003f4565b92915050565b6000819050919050565b6200043a8162000425565b81146200044657600080fd5b50565b6000815190506200045a816200042f565b92915050565b6000819050919050565b620004758162000460565b81146200048157600080fd5b50565b60008151905062000495816200046a565b92915050565b600063ffffffff82169050919050565b620004b6816200049b565b8114620004c257600080fd5b50565b600081519050620004d681620004ab565b92915050565b60008060008060008060c08789031215620004fc57620004fb620003bb565b5b60006200050c89828a016200040e565b96505060206200051f89828a0162000449565b95505060406200053289828a0162000484565b94505060606200054589828a0162000449565b93505060806200055889828a01620004c5565b92505060a06200056b89828a0162000449565b9150509295509295509295565b600082825260208201905092915050565b7f43616e6e6f7420736574206f776e657220746f207a65726f0000000000000000600082015250565b6000620005c160188362000578565b9150620005ce8262000589565b602082019050919050565b60006020820190508181036000830152620005f481620005b2565b9050919050565b7f4e487b7100000000000000000000000000000000000000000000000000000000600052602160045260246000fd5b7f43616e6e6f74207472616e7366657220746f2073656c66000000000000000000600082015250565b60006200066260178362000578565b91506200066f826200062a565b602082019050919050565b60006020820190508181036000830152620006958162000653565b9050919050565b60805160a05160c05160e0516101005161012051611e3a620006f060003960006108e501526000610774015260006107430152600061071d0152600081816104a50152610d2d015260005050611e3a6000f3fe6080604052600436106100fe5760003560e01c80636e04ff0d116100955780639eccacf6116100645780639eccacf6146102df578063ce147cf31461030a578063e55ae4e814610335578063f2fde38b14610372578063fd6673f51461039b576100fe565b80636e04ff0d1461023657806379ba5097146102745780638da5cb5b1461028b5780638ea98117146102b6576100fe565b80634585e33b116100d15780634585e33b1461018c578063473f1ddc146101b557806353a2c19a146101e05780635f1b0fd81461020b576100fe565b8063115cbaf5146101035780631fe543e31461012e5780632cfcc53914610157578063320229eb14610161575b600080fd5b34801561010f57600080fd5b506101186103c6565b6040516101259190611358565b60405180910390f35b34801561013a57600080fd5b5061015560048036038101906101509190611422565b6103dd565b005b61015f6104a3565b005b34801561016d57600080fd5b50610176610612565b6040516101839190611491565b60405180910390f35b34801561019857600080fd5b506101b360048036038101906101ae9190611502565b61061c565b005b3480156101c157600080fd5b506101ca61085c565b6040516101d79190611590565b60405180910390f35b3480156101ec57600080fd5b506101f5610886565b6040516102029190611491565b60405180910390f35b34801561021757600080fd5b50610220610895565b60405161022d9190611491565b60405180910390f35b34801561024257600080fd5b5061025d600480360381019061025891906116ec565b6108a2565b60405161026b9291906117cf565b60405180910390f35b34801561028057600080fd5b50610289610964565b005b34801561029757600080fd5b506102a0610af9565b6040516102ad9190611590565b60405180910390f35b3480156102c257600080fd5b506102dd60048036038101906102d8919061182b565b610b22565b005b3480156102eb57600080fd5b506102f4610d03565b60405161030191906118b7565b60405180910390f35b34801561031657600080fd5b5061031f610d29565b60405161032c9190611491565b60405180910390f35b34801561034157600080fd5b5061035c600480360381019061035791906118d2565b610d51565b6040516103699190611590565b60405180910390f35b34801561037e57600080fd5b506103996004803603810190610394919061182b565b610d99565b005b3480156103a757600080fd5b506103b0610dad565b6040516103bd9190611491565b60405180910390f35b6000600460149054906101000a900460ff16905090565b600260009054906101000a900473ffffffffffffffffffffffffffffffffffffffff1673ffffffffffffffffffffffffffffffffffffffff163373ffffffffffffffffffffffffffffffffffffffff16146104935733600260009054906101000a900473ffffffffffffffffffffffffffffffffffffffff166040517f1cf993f400000000000000000000000000000000000000000000000000000000815260040161048a9291906118ff565b60405180910390fd5b61049e838383610dba565b505050565b7f00000000000000000000000000000000000000000000000000000000000000003410156104fd576040517fbd4e069500000000000000000000000000000000000000000000000000000000815260040160405180910390fd5b60006001811115610511576105106112e1565b5b600460149054906101000a900460ff166001811115610533576105326112e1565b5b1461056a576040517f1425571c00000000000000000000000000000000000000000000000000000000815260040160405180910390fd5b6003339080600181540180825580915050600190039060005260206000200160009091909190916101000a81548173ffffffffffffffffffffffffffffffffffffffff021916908373ffffffffffffffffffffffffffffffffffffffff1602179055503373ffffffffffffffffffffffffffffffffffffffff167f0805e1d667bddb8a95f0f09880cf94f403fb596ce79928d9f29b74203ba284d460405160405180910390a2565b6000600554905090565b6000610636604051806020016040528060008152506108a2565b509050806106a55747600380549050600460149054906101000a900460ff166001811115610667576106666112e1565b5b6040517f3a8d608600000000000000000000000000000000000000000000000000000000815260040161069c93929190611928565b60405180910390fd5b6001600460146101000a81548160ff021916908360018111156106cb576106ca6112e1565b5b02179055506000600260009054906101000a900473ffffffffffffffffffffffffffffffffffffffff1673ffffffffffffffffffffffffffffffffffffffff16639b1c385e6040518060c001604052807f000000000000000000000000000000000000000000000000000000000000000081526020017f00000000000000000000000000000000000000000000000000000000000000008152602001600361ffff1681526020017f000000000000000000000000000000000000000000000000000000000000000063ffffffff168152602001600163ffffffff1681526020016107c5604051806020016040528060001515815250610fe6565b8152506040518263ffffffff1660e01b81526004016107e49190611a96565b6020604051808303816000875af1158015610803573d6000803e3d6000fd5b505050506040513d601f19601f820116820180604052508101906108279190611acd565b9050807fcd6e45c8998311cab7e9d4385596cac867e20a0587194b954fa3a731c93ce78b60405160405180910390a250505050565b6000600460009054906101000a900473ffffffffffffffffffffffffffffffffffffffff16905090565b6000600163ffffffff16905090565b6000600361ffff16905090565b600060606000600460149054906101000a900460ff1660018111156108ca576108c96112e1565b5b600060018111156108de576108dd6112e1565b5b14905060007f0000000000000000000000000000000000000000000000000000000000000000600554426109129190611b29565b119050600080600380549050119050600080471190508380156109325750825b801561093b5750815b80156109445750805b955085604051806020016040528060008152509550955050505050915091565b600160009054906101000a900473ffffffffffffffffffffffffffffffffffffffff1673ffffffffffffffffffffffffffffffffffffffff163373ffffffffffffffffffffffffffffffffffffffff16146109f4576040517f08c379a00000000000000000000000000000000000000000000000000000000081526004016109eb90611bba565b60405180910390fd5b60008060009054906101000a900473ffffffffffffffffffffffffffffffffffffffff169050336000806101000a81548173ffffffffffffffffffffffffffffffffffffffff021916908373ffffffffffffffffffffffffffffffffffffffff1602179055506000600160006101000a81548173ffffffffffffffffffffffffffffffffffffffff021916908373ffffffffffffffffffffffffffffffffffffffff1602179055503373ffffffffffffffffffffffffffffffffffffffff168173ffffffffffffffffffffffffffffffffffffffff167f8be0079c531659141344cd1fd0a4f28419497f9722a3daafe3b4186f6b6457e060405160405180910390a350565b60008060009054906101000a900473ffffffffffffffffffffffffffffffffffffffff16905090565b610b2a610af9565b73ffffffffffffffffffffffffffffffffffffffff163373ffffffffffffffffffffffffffffffffffffffff1614158015610bb35750600260009054906101000a900473ffffffffffffffffffffffffffffffffffffffff1673ffffffffffffffffffffffffffffffffffffffff163373ffffffffffffffffffffffffffffffffffffffff1614155b15610c225733610bc1610af9565b600260009054906101000a900473ffffffffffffffffffffffffffffffffffffffff166040517f061db9c1000000000000000000000000000000000000000000000000000000008152600401610c1993929190611bda565b60405180910390fd5b600073ffffffffffffffffffffffffffffffffffffffff168173ffffffffffffffffffffffffffffffffffffffff1603610c88576040517fd92e233d00000000000000000000000000000000000000000000000000000000815260040160405180910390fd5b80600260006101000a81548173ffffffffffffffffffffffffffffffffffffffff021916908373ffffffffffffffffffffffffffffffffffffffff1602179055507fd1a6a14209a385a964d036e404cb5cfb71f4000cdb03c9366292430787261be681604051610cf89190611590565b60405180910390a150565b600260009054906101000a900473ffffffffffffffffffffffffffffffffffffffff1681565b60007f0000000000000000000000000000000000000000000000000000000000000000905090565b600060038281548110610d6757610d66611c11565b5b9060005260206000200160009054906101000a900473ffffffffffffffffffffffffffffffffffffffff169050919050565b610da161107e565b610daa8161110e565b50565b6000600380549050905090565b60006003808054905084846000818110610dd757610dd6611c11565b5b90506020020135610de89190611c6f565b81548110610df957610df8611c11565b5b9060005260206000200160009054906101000a900473ffffffffffffffffffffffffffffffffffffffff16905080600460006101000a81548173ffffffffffffffffffffffffffffffffffffffff021916908373ffffffffffffffffffffffffffffffffffffffff1602179055506000600460146101000a81548160ff02191690836001811115610e8d57610e8c6112e1565b5b0217905550600067ffffffffffffffff811115610ead57610eac6115c1565b5b604051908082528060200260200182016040528015610edb5781602001602082028036833780820191505090505b5060039080519060200190610ef192919061123a565b504260058190555060008173ffffffffffffffffffffffffffffffffffffffff1647604051610f1f90611cd1565b60006040518083038185875af1925050503d8060008114610f5c576040519150601f19603f3d011682016040523d82523d6000602084013e610f61565b606091505b5050905080610f9c576040517fa1d04b3900000000000000000000000000000000000000000000000000000000815260040160405180910390fd5b8173ffffffffffffffffffffffffffffffffffffffff167f5b690ec4a06fe979403046eaeea5b3ce38524683c3001f662c8b5a829632f7df60405160405180910390a25050505050565b60607f92fd13387c7fe7befbc38d303d6468778fb9731bc4583f17d92989c6fcfdeaaa8260405160240161101a9190611d11565b604051602081830303815290604052907bffffffffffffffffffffffffffffffffffffffffffffffffffffffff19166020820180517bffffffffffffffffffffffffffffffffffffffffffffffffffffffff83818316178352505050509050919050565b60008054906101000a900473ffffffffffffffffffffffffffffffffffffffff1673ffffffffffffffffffffffffffffffffffffffff163373ffffffffffffffffffffffffffffffffffffffff161461110c576040517f08c379a000000000000000000000000000000000000000000000000000000000815260040161110390611d78565b60405180910390fd5b565b3373ffffffffffffffffffffffffffffffffffffffff168173ffffffffffffffffffffffffffffffffffffffff160361117c576040517f08c379a000000000000000000000000000000000000000000000000000000000815260040161117390611de4565b60405180910390fd5b80600160006101000a81548173ffffffffffffffffffffffffffffffffffffffff021916908373ffffffffffffffffffffffffffffffffffffffff1602179055508073ffffffffffffffffffffffffffffffffffffffff1660008054906101000a900473ffffffffffffffffffffffffffffffffffffffff1673ffffffffffffffffffffffffffffffffffffffff167fed8889f560326eb138920d842192f0eb3dd22b4f139c87a2c57538e05bae127860405160405180910390a350565b8280548282559060005260206000209081019282156112b3579160200282015b828111156112b25782518260006101000a81548173ffffffffffffffffffffffffffffffffffffffff021916908373ffffffffffffffffffffffffffffffffffffffff1602179055509160200191906001019061125a565b5b5090506112c091906112c4565b5090565b5b808211156112dd5760008160009055506001016112c5565b5090565b7f4e487b7100000000000000000000000000000000000000000000000000000000600052602160045260246000fd5b60028110611321576113206112e1565b5b50565b600081905061133282611310565b919050565b600061134282611324565b9050919050565b61135281611337565b82525050565b600060208201905061136d6000830184611349565b92915050565b6000604051905090565b600080fd5b600080fd5b6000819050919050565b61139a81611387565b81146113a557600080fd5b50565b6000813590506113b781611391565b92915050565b600080fd5b600080fd5b600080fd5b60008083601f8401126113e2576113e16113bd565b5b8235905067ffffffffffffffff8111156113ff576113fe6113c2565b5b60208301915083602082028301111561141b5761141a6113c7565b5b9250929050565b60008060006040848603121561143b5761143a61137d565b5b6000611449868287016113a8565b935050602084013567ffffffffffffffff81111561146a57611469611382565b5b611476868287016113cc565b92509250509250925092565b61148b81611387565b82525050565b60006020820190506114a66000830184611482565b92915050565b60008083601f8401126114c2576114c16113bd565b5b8235905067ffffffffffffffff8111156114df576114de6113c2565b5b6020830191508360018202830111156114fb576114fa6113c7565b5b9250929050565b600080602083850312156115195761151861137d565b5b600083013567ffffffffffffffff81111561153757611536611382565b5b611543858286016114ac565b92509250509250929050565b600073ffffffffffffffffffffffffffffffffffffffff82169050919050565b600061157a8261154f565b9050919050565b61158a8161156f565b82525050565b60006020820190506115a56000830184611581565b92915050565b600080fd5b6000601f19601f8301169050919050565b7f4e487b7100000000000000000000000000000000000000000000000000000000600052604160045260246000fd5b6115f9826115b0565b810181811067ffffffffffffffff82111715611618576116176115c1565b5b80604052505050565b600061162b611373565b905061163782826115f0565b919050565b600067ffffffffffffffff821115611657576116566115c1565b5b611660826115b0565b9050602081019050919050565b82818337600083830152505050565b600061168f61168a8461163c565b611621565b9050828152602081018484840111156116ab576116aa6115ab565b5b6116b684828561166d565b509392505050565b600082601f8301126116d3576116d26113bd565b5b81356116e384826020860161167c565b91505092915050565b6000602082840312156117025761170161137d565b5b600082013567ffffffffffffffff8111156117205761171f611382565b5b61172c848285016116be565b91505092915050565b60008115159050919050565b61174a81611735565b82525050565b600081519050919050565b600082825260208201905092915050565b60005b8381101561178a57808201518184015260208101905061176f565b60008484015250505050565b60006117a182611750565b6117ab818561175b565b93506117bb81856020860161176c565b6117c4816115b0565b840191505092915050565b60006040820190506117e46000830185611741565b81810360208301526117f68184611796565b90509392505050565b6118088161156f565b811461181357600080fd5b50565b600081359050611825816117ff565b92915050565b6000602082840312156118415761184061137d565b5b600061184f84828501611816565b91505092915050565b6000819050919050565b600061187d6118786118738461154f565b611858565b61154f565b9050919050565b600061188f82611862565b9050919050565b60006118a182611884565b9050919050565b6118b181611896565b82525050565b60006020820190506118cc60008301846118a8565b92915050565b6000602082840312156118e8576118e761137d565b5b60006118f6848285016113a8565b91505092915050565b60006040820190506119146000830185611581565b6119216020830184611581565b9392505050565b600060608201905061193d6000830186611482565b61194a6020830185611482565b6119576040830184611482565b949350505050565b6000819050919050565b6119728161195f565b82525050565b61198181611387565b82525050565b600061ffff82169050919050565b61199e81611987565b82525050565b600063ffffffff82169050919050565b6119bd816119a4565b82525050565b600082825260208201905092915050565b60006119df82611750565b6119e981856119c3565b93506119f981856020860161176c565b611a02816115b0565b840191505092915050565b600060c083016000830151611a256000860182611969565b506020830151611a386020860182611978565b506040830151611a4b6040860182611995565b506060830151611a5e60608601826119b4565b506080830151611a7160808601826119b4565b5060a083015184820360a0860152611a8982826119d4565b9150508091505092915050565b60006020820190508181036000830152611ab08184611a0d565b905092915050565b600081519050611ac781611391565b92915050565b600060208284031215611ae357611ae261137d565b5b6000611af184828501611ab8565b91505092915050565b7f4e487b7100000000000000000000000000000000000000000000000000000000600052601160045260246000fd5b6000611b3482611387565b9150611b3f83611387565b9250828203905081811115611b5757611b56611afa565b5b92915050565b600082825260208201905092915050565b7f4d7573742062652070726f706f736564206f776e657200000000000000000000600082015250565b6000611ba4601683611b5d565b9150611baf82611b6e565b602082019050919050565b60006020820190508181036000830152611bd381611b97565b9050919050565b6000606082019050611bef6000830186611581565b611bfc6020830185611581565b611c096040830184611581565b949350505050565b7f4e487b7100000000000000000000000000000000000000000000000000000000600052603260045260246000fd5b7f4e487b7100000000000000000000000000000000000000000000000000000000600052601260045260246000fd5b6000611c7a82611387565b9150611c8583611387565b925082611c9557611c94611c40565b5b828206905092915050565b600081905092915050565b50565b6000611cbb600083611ca0565b9150611cc682611cab565b600082019050919050565b6000611cdc82611cae565b9150819050919050565b611cef81611735565b82525050565b602082016000820151611d0b6000850182611ce6565b50505050565b6000602082019050611d266000830184611cf5565b92915050565b7f4f6e6c792063616c6c61626c65206279206f776e657200000000000000000000600082015250565b6000611d62601683611b5d565b9150611d6d82611d2c565b602082019050919050565b60006020820190508181036000830152611d9181611d55565b9050919050565b7f43616e6e6f74207472616e7366657220746f2073656c66000000000000000000600082015250565b6000611dce601783611b5d565b9150611dd982611d98565b602082019050919050565b60006020820190508181036000830152611dfd81611dc1565b905091905056fea26469706673582212206d43195aedfe8e753fb88b89f47799304d4b297032f1f7d810142b9b445bf8d364736f6c63430008180033",
  "devdoc": {
    "author": "Kartik",
    "details": "This implements Chainlink VRFv2.5 and ChainkLink Keepers",
    "kind": "dev",
    "methods": {
      "checkUpkeep(bytes)": {
        "details": "This is function that the Chainlink Keeper nodes call they look for the `upKeepNeeded` to return true The following should be true in order to return  true: 1. Our time interval should have passed 2. The lottery should have at least 1 player, and have some ETH 3. Our subscription is funded with LINK 4. The lottery should be in an \"open\" state"
      }
    },
    "title": "A sample Raffle Contract",
    "version": 1
  },
  "userdoc": {
    "kind": "user",
    "methods": {
      "acceptOwnership()": {
        "notice": "Allows an ownership transfer to be completed by the recipient."
      },
      "owner()": {
        "notice": "Get the current owner"
      },
      "setCoordinator(address)": {
        "notice": "Sets the VRF Coordinator addressThis method should only be callable by the coordinator or contract owner"
      },
      "transferOwnership(address)": {
        "notice": "Allows an owner to begin transferring ownership to a new address."
      }
    },
    "notice": "This contract is for creating untamperable smart contract",
    "version": 1
  },
  "storageLayout": {
    "storage": [
      {
        "astId": 97,
        "contract": "contracts/Raffle.sol:Raffle",
        "label": "s_owner",
        "offset": 0,
        "slot": "0",
        "type": "t_address"
      },
      {
        "astId": 99,
        "contract": "contracts/Raffle.sol:Raffle",
        "label": "s_pendingOwner",
        "offset": 0,
        "slot": "1",
        "type": "t_address"
      },
      {
        "astId": 299,
        "contract": "contracts/Raffle.sol:Raffle",
        "label": "s_vrfCoordinator",
        "offset": 0,
        "slot": "2",
        "type": "t_contract(IVRFCoordinatorV2Plus)448"
      },
      {
        "astId": 729,
        "contract": "contracts/Raffle.sol:Raffle",
        "label": "s_players",
        "offset": 0,
        "slot": "3",
        "type": "t_array(t_address_payable)dyn_storage"
      },
      {
        "astId": 743,
        "contract": "contracts/Raffle.sol:Raffle",
        "label": "s_recentWinner",
        "offset": 0,
        "slot": "4",
        "type": "t_address"
      },
      {
        "astId": 746,
        "contract": "contracts/Raffle.sol:Raffle",
        "label": "s_raffleState",
        "offset": 20,
        "slot": "4",
        "type": "t_enum(RaffleState)721"
      },
      {
        "astId": 748,
        "contract": "contracts/Raffle.sol:Raffle",
        "label": "s_lastTimeStamp",
        "offset": 0,
        "slot": "5",
        "type": "t_uint256"
      }
    ],
    "types": {
      "t_address": {
        "encoding": "inplace",
        "label": "address",
        "numberOfBytes": "20"
      },
      "t_address_payable": {
        "encoding": "inplace",
        "label": "address payable",
        "numberOfBytes": "20"
      },
      "t_array(t_address_payable)dyn_storage": {
        "base": "t_address_payable",
        "encoding": "dynamic_array",
        "label": "address payable[]",
        "numberOfBytes": "32"
      },
      "t_contract(IVRFCoordinatorV2Plus)448": {
        "encoding": "inplace",
        "label": "contract IVRFCoordinatorV2Plus",
        "numberOfBytes": "20"
      },
      "t_enum(RaffleState)721": {
        "encoding": "inplace",
        "label": "enum Raffle.RaffleState",
        "numberOfBytes": "1"
      },
      "t_uint256": {
        "encoding": "inplace",
        "label": "uint256",
        "numberOfBytes": "32"
      }
    }
  }
}